{
    "contractName": "Migrations",
    "abi": [
        {
            "constant": true,
            "inputs": [],
            "name": "last_completed_migration",
            "outputs": [
                {
                    "internalType": "uint256",
                    "name": "",
                    "type": "uint256"
                }
            ],
            "payable": false,
            "stateMutability": "view",
            "type": "function"
        },
        {
            "constant": true,
            "inputs": [],
            "name": "owner",
            "outputs": [
                {
                    "internalType": "address",
                    "name": "",
                    "type": "address"
                }
            ],
            "payable": false,
            "stateMutability": "view",
            "type": "function"
        },
        {
            "constant": false,
            "inputs": [
                {
                    "internalType": "uint256",
                    "name": "completed",
                    "type": "uint256"
                }
            ],
            "name": "setCompleted",
            "outputs": [],
            "payable": false,
            "stateMutability": "nonpayable",
            "type": "function"
        },
        {
            "inputs": [],
            "payable": false,
            "stateMutability": "nonpayable",
            "type": "constructor"
        }
    ],
    "bytecode": "608060405234801561001057600080fd5b50600080546001600160a01b0319163317905560fc806100316000396000f3fe6080604052348015600f57600080fd5b5060043610603c5760003560e01c8063445df0ac1460415780638da5cb5b146059578063fdacd57614607b575b600080fd5b60476097565b60408051918252519081900360200190f35b605f609d565b604080516001600160a01b039092168252519081900360200190f35b609560048036036020811015608f57600080fd5b503560ac565b005b60015481565b6000546001600160a01b031681565b6000546001600160a01b031633141560c45760018190555b5056fea265627a7a723158204e9dd265badad32021b2d66cb845369d212a07f35514cd301742476274b45fb064736f6c634300050b0032",
    "sourcePath": "d:/E-Voting/FrontEnd/contracts/Migrations.sol",
    "compiler": {
        "name": "solc",
        "version": "0.5.11+commit.c082d0b4"
    },
    "functionHashes": {
        "last_completed_migration()": "445df0ac",
        "owner()": "8da5cb5b",
        "setCompleted(uint256)": "fdacd576"
    },
    "gasEstimates": {
        "creation": {
            "codeDepositCost": "50400",
            "executionCost": "20334",
            "totalCost": "70734"
        },
        "external": {
            "last_completed_migration()": "376",
            "owner()": "437",
            "setCompleted(uint256)": "20462"
        }
    }
}